:020000020000FC
:100000000C94B4040C9405050C9410050C941B0579
:040050000C945705B0
:10005C000C942F058F939F939FE08CE90197F1F7F8
:10006C009F918F910895F6DFF5DFF4DFF3DFF2DF78
:10007C000895F9DFF8DF0895F6DFF5DFF4DFF3DF3D
:10008C00F2DF0895F9DFF8DFF7DFF6DF08951F934D
:10009C0010910602103011F0089407C011E0109373
:1000AC00060211E010936F0088941F9108955F93DE
:1000BC006F938F939F931F938091070290910802E7
:1000CC006091090210910902161B1517D8F31091B3
:1000DC0007021817109108021907A0F31F919F919E
:1000EC008F916F915F9108955F936F938F939F930F
:1000FC001F9380910702909108026091090209D127
:10010C0000910202033271F0A314C9F71091090295
:10011C00161B1517B8F21091070218171091080248
:10012C00190780F2B4DF58F311E0A126E8CF1F9134
:10013C009F918F916F915F91089501BB0000169A6A
:10014C000000000000001698000000000000089558
:10015C0001BB179A000000000000169A0000000076
:10016C0000001698000000000000179808950F93E7
:10017C00002700BB01BB159A0000169A0000000076
:10018C0000000FB1169807FDF7CF15980FEF00BBC5
:10019C000F9108951F935F93EF92112754E014D0A1
:1001AC00E11629F010E31E0D012FD2DFE0DF5A9586
:1001BC005030ACF7103021F410E3012FC9DFD7DF3A
:1001CC00EF905F911F9108951F932F933F934F933F
:1001DC005F93EE24332744273395503099F05A958A
:1001EC001F932F938894331F441F132F242F88940D
:1001FC00331F441F8894331F441F310F421F2F910C
:10020C001F91EBCF8317940724F0E394831B940B7B
:10021C00F9CF5F914F913F912F911F910895EF93DB
:10022C00FF930F930591003049F00F3221F400EC4D
:10023C0084DF9DDFF7CF8CDF9ADFF4CF0F91FF9136
:10024C00EF910895AF93BF930F935F9355270D9143
:10025C00003031F07DDF8BDF53955B3009F0F7CF49
:10026C005F910F91BF91AF9108951F932F936F934F
:10027C00EF925F937F9337D060910202E09004027B
:10028C00509105022227613414F4623324F470E295
:10029C007093030221C06E1529F05527683384F042
:1002AC0021E00EC05395673324F039F021E0693317
:1002BC0021F053302CF0535003C054300CF05450F8
:1002CC0050930502762F7053770F1BE0710F720F4E
:1002DC00750F760F709303027F915F91EF906F9182
:1002EC002F911F9108951F930F937F93709102028A
:1002FC00672F0FD0009102020030D9F3071719F4C1
:10030C00C1DE70E0F6CF609304027F910F911F91D4
:10031C0008951F932F936F93BF92CF921127109331
:10032C0002026FEEBB2460930B011FEF1A95F1F7DD
:10033C00109109011F701F3069F061E0CC24212F4E
:10034C00262321F415D0109302020CC0C394660F1F
:10035C000C94A50113E0B11629F00894661FB39410
:10036C000C949901CF90BF906F912F911F9108958C
:10037C0013E0B11659F0C11669F01C2D110F1C0DAC
:10038C001B0D139520E3120F0C94DD0111E41C0DD1
:10039C000C94DD011127B11631F01395B11631F023
:1003AC0013E20C94DD011AE20C94DD0110E364DE1F
:1003BC0008956F931F932F938F939F936F93A31411
:1003CC0019F030929A0029C080910B0290910C0286
:1003DC001F932F938894881F991F182F292F889467
:1003EC00881F991F8894881F991F810F921F2F9126
:1003FC001F91889497958795889497958795609188
:10040C009A001CE381172CF041F0625060939A0023
:10041C0004C012E0610F60939A006F919F918F91CD
:10042C002F911F9108958F939F931F9301E085DE69
:10043C009EDE06E082DE9BDE0CE07FDE98DE8091A5
:10044C000B0290910C021F932F938894881F991F75
:10045C00182F292F8894881F991F8894881F991FFB
:10046C00810F921F2F911F9188949795879588944F
:10047C00979587958FDECBE0D2E0112719931883DF
:10048C006F911F919F918F9108955F930F931F937D
:10049C002F93CDE0D2E011271993188355271127FC
:1004AC00002701E04ADE63DE06E047DE60DE0FE097
:1004BC0044DE5DDEE0EEF8E0B2DE15DF0091020214
:1004CC000332E9F001342CF70A3219F35230ACF74D
:1004DC003FDE4DDE005320910D021F93122F110FA2
:1004EC00112E110F110F110E1F91010D0B308CF6E7
:1004FC00003079F2102F00930D025395DECF11309E
:10050C0041F2503031F22F911F910F915F9108956C
:10051C007F936F931F930F935F93DF9201E00DDE38
:10052C0026DE06E00ADE23DE0FE007DE20DEEAEF41
:10053C00F8E075DE0CE001DE1ADE5F9353E0B7DD08
:10054C005F917727AEE0B2E01BE0179FA00DB11DC5
:10055C00739510910D021A30A9F001E0EEDD07DE63
:10056C0006E0EBDD04DE0FE0E8DD01DEE0E4F9E0BF
:10057C0056DE00E3070FECDDFADDEAE4F9E04FDECE
:10058C0055272DC07A30B9F401E0D7DDF0DD06E057
:10059C00D4DDEDDD0FE0D1DDEADDE0E4F9E03FDEB6
:1005AC0001E3D6DDE4DD00E3D3DDE1DDEAE4F9E0EF
:1005BC0036DE552714C001E0C0DDD9DD06E0BDDD17
:1005CC00D6DD0FE0BADDD3DDE0E4F9E028DE00E3B0
:1005DC00070FBEDDCCDDEAE4F9E021DE552745DE70
:1005EC0060910202009103026332B1F06A3251F061
:1005FC006134ACF7002FACDDBADDD02E00E19DDD0F
:10060C00B6DDEDCFDD92D090030253955A3021F038
:10061C0004E193DDACDDE3CF3C9210910D02711738
:10062C0009F090CFDF905F910F911F916F917F91A7
:10063C000895CF93DF935F930F931F932F933F9363
:10064C007F93CCE7D2E0112719931883CEE7D2E041
:10065C00112719931883C0E8D2E011271993188336
:10066C00C2E8D2E0112719931883C4E8D2E011270D
:10067C001993188301E061DD7ADD06E05EDD77DD3C
:10068C000FE05BDD74DDECE2F9E0C9DD0CE055DD7B
:10069C006EDD5F9353E00BDD5F91772701E04DDD5D
:1006AC0066DD06E04ADD63DD0FE047DD60DDAEE0D0
:1006BC00B2E01BE0179FA00DB11DC4DDEEE4F9E024
:1006CC00AEDD372F739510910D0271170CF0772753
:1006DC00AEE0B2E01BE0179FA00DB11DB3DD0AE345
:1006EC0037DD45DD732F5527FEDD00910202033205
:1006FC0021F10134CCF70A32B9F35230ACF728DDD2
:10070C0036DDACE7B2E0A70FB30D00532C911F936D
:10071C00122F110F112E110F110F110E1F91010D10
:10072C000B302CF4003019F00C935395DDCFACE763
:10073C00B2E0A70FB30D3C92B1CF5030C1F373951B
:10074C0010910D02711709F0A9CF7F913F912F9154
:10075C001F910F915F91DF91CF9108951F930F938C
:10076C007F93EF93FF9301E0E8DC01DD06E0E5DC2D
:10077C00FEDC0FE0E2DCFBDCE6E1F9E050DD0CE056
:10078C00DCDCF5DC5F9353E092DC5F9101E0D5DCBF
:10079C00EEDC06E0D2DCEBDC0FE0CFDCE8DCE0EA00
:1007AC00F8E03DDDA0DD70910202733271F0703320
:1007BC00C9F37233BCF37633ACF7172F072FC8DCB1
:1007CC00D6DC00E1BADCD3DCEDCFE6E8F2E0105386
:1007DC001083FF91EF917F910F911F9108955F937B
:1007EC0001E0ABDCC4DC06E0A8DCC1DC0FE0A5DC7E
:1007FC00BEDCE4EBF8E013DD0CE09FDCB8DC52E08F
:10080C005F93552F54DC5F9101E097DCB0DC06E080
:10081C0094DCADDC0FE091DCAADCE0EDF8E0FFDC71
:10082C000CE08BDCA4DC5F9355E041DC5F9101E0D4
:10083C0084DC9DDC06E081DC9ADC0FE07EDC97DC5E
:10084C005F910895506C65617365207479706520B3
:10085C00746865206D6178696D756D206E756D625B
:10086C006572206F662073746174696F6E733A20C1
:10087C00506C6561736520747970652074686520AF
:10088C006E616D65206F662053746174696F6E20A4
:10089C00286E29004D6F6E6F7261696C2073746FD6
:1008AC00702F74696D653A00436F6E666967757277
:1008BC006174696F6E202F697320636F6D706C6546
:1008CC0074652E00576169742035207365636F6EF3
:1008DC0064732E00456E746572206E756D62657260
:1008EC00206F662F73746174696F6E733A00456E76
:1008FC00746572206E616D65206F662F656163682B
:10090C002073746174696F6E2E00456E746572206D
:10091C0073746F702F6475726174696F6E2E000042
:10092C00456E7465722074726176656C2F74696D96
:10093C0065732E0053746174696F6E2000003A2F3A
:10094C00000020746F2F0000546865206E65787469
:10095C002053746E2069733A2F001895F894332441
:10096C001FEF1DBF11E21EBF1FEF17B9112718B9DA
:10097C0010EF10930A011FEF10BB11B9112711BB17
:10098C0012B908E3DADBF3DB6EDB08E3D6DBEFDB73
:10099C0061DB08E3D2DBEBDB08E3CFDBE8DB08E071
:1009AC00CCDBE5DB01E0C9DBE2DB06E0C6DBDFDB51
:1009BC000FE0C3DBDCDB11271AB91FEF1BB91AE2FE
:1009CC00109369001DB317601DBB34BC12E015BD3C
:1009DC0011E010936E003092800014E010938100AF
:1009EC001FEF1DB9112710939B001AE410939A0066
:1009FC0011E01093910019EA109390005DC01F93C1
:100A0C001FB71F9344DB10F011E0912E1F911FBFF5
:100A1C001F9118951F931FB71F9339DB10F011E02E
:100A2C00912E1F911FBF1F9118951F931FB71F93D6
:100A3C008F939F9380910B0290910C02019680935F
:100A4C000B0290930C029F918F911F911FBF1F91CE
:100A5C0018951F931FB71F938F939F938091070235
:100A6C0090910802019684381EE1910779F4C7E051
:100A7C00D2E01127199318838091090290910A02F0
:100A8C0001968093090290930A0205C08093070295
:100A9C009093080200C09F918F911F911FBF1F91CF
:100AAC0018951F931FB71F933092060230926F0058
:100ABC001F911FBF1F9118957894C7E0D2E01127A2
:100ACC0019931883C9E0D2E0112719931883CBE04E
:100ADC00D2E0112719931883CDE0D2E011271883A7
:100AEC00C6E8D2E011271883C2E0D2E0112719938F
:100AFC001883C4E0D2E01127199318839924AA24EF
:100B0C0011E0A126C2DC04DD94DD28DE68DE772747
:100B1C0020910D02721701F101E00FDB28DB06E0DA
:100B2C000CDB25DB0FE009DB22DBE4E5F9E077DB0E
:100B3C00AEE0B2E01BE0179FA00DB11D83DBACE76C
:100B4C00B2E0A70FB30D1C915F93512FB0DA5F91F8
:100B5C007395DECF772701D0FFCF931439F0109126
:100B6C0086025F93512FA3DA5F9100C0ACE7B2E02D
:100B7C00A70FB30D1C9101E0E0DAF9DA06E0DDDA3B
:100B8C00F6DA0FE0DADAF3DAAEE0B2E01BE0179F48
:100B9C00A00DB11D57DB5F93512F89DA5F91109136
:100BAC000D02511751F09FDB70910202733219F054
:100BBC0005D0539501C000C0D0CFFFCF1F935F93DA
:100BCC00EF93FF9311E0911601F0E0918600F09104
:100BDC000200108150E3511711F05395FCCFFF9197
:100BEC00EF915F911F9108957F937DDB70910202CD
:080BFC007332D9F77F910895CF
:00000001FF
